S01600004261636B6C6974426164676530332E737265631E
S113000019C033C032C031C030C03CC82EC02DC06E
S11300102CC02BC02AC029C01FC827C026C025C099
S113002024C023C022C021C020C01FC01EC01DC0C8
S11300301CC01BC011241FBECFEFD2E0DEBFCDBF5A
S113004011E0A0E0B1E0E0EAF4E102C005900D9215
S1130050A430B107D9F721E0A4E0B1E001C01D92BA
S1130060A337B207E1F73AD819CACACF2F923F9201
S11300704F925F926F927F928F929F92AF92BF92B4
S1130080CF92DF92EF92FF920F931F93CF93DF9360
S1130090CDB7DEB7A3970FB6F894DEBF0FBECDBFC2
S11300A080E03090400140903F0150903E016090CC
S11300B03D0170903C0180903B0190903A01A090EA
S11300C03901B0903801C0903701D0903601E090EA
S11300D03501F09034010091330110914F012091CA
S11300E04E012BA390914D019AA3B0914C01A09184
S11300F04B01F0914A01E0914901709148016091EE
S113010047015091460140914501309144012091AD
S113011043012B83909142019A83209141012983C9
S113012090915E019A8B20915D01298B90915C01E5
S1130130988B20915B012F8790915A019E87209183
S113014059012D87909158019C87209157012B8745
S1130150909156019A8720915501298790915401D5
S11301609887209153012F83909152019E8320916F
S113017051012D83909150019C8320916D0129A3FD
S113018090916C0198A320916B012F8F90916A013B
S11301909E8F209169012D8F909168019C8F2091F1
S11301A067012B8F909166019A8F20916501298FA9
S11301B090916401988F209163012F8B909162013B
S11301C09E8B209161012D8B909160019C8B2091DD
S11301D05F012B8B9CEF14C322E7222E381608F400
S11301E019C323E722B822B9481608F419C322E731
S11301F0222E481608F419C323E722B822B9581648
S113020008F419C322E7222E581608F419C323E769
S113021022B822B9681608F419C322E7222E6816F8
S113022008F419C323E722B822B9781608F419C3CD
S113023022E7222E781608F419C323E722B822B93C
S1130240881608F419C322E7222E881608F419C365
S113025023E722B822B9981608F419C322E7222EFC
S1130260981608F419C323E722B822B9A81608F48B
S113027019C322E7222EA81608F419C323E722B8CB
S113028022B9B81608F419C322E7222EB81608F4C6
S113029019C323E722B822B9C81608F419C322E700
S11302A0222EC81608F419C323E722B822B9D81697
S11302B008F419C322E7222ED81608F419C323E739
S11302C022B822B9E81608F419C322E7222EE81648
S11302D008F419C323E722B822B9F81608F419C39D
S11302E022E7222EF81608F419C323E722B822B90C
S11302F0081708F419C322E7222E081708F419C3B3
S113030023E722B822B920913201281708F419C32F
S11303100F2EF2E72F2EF02D281708F419C323E728
S113032022B822B992B920EE22B921EE22B91817C7
S113033008F457C422EE222E181708F450C423EEF2
S113034022B822B92BA1281708F444C40F2EF2EEC8
S11303502F2EF02D281708F43BC423EE22B822B91F
S11303602AA1281708F42FC40F2EF2EE2F2EF02DF9
S1130370281708F426C423EE22B822B9B81708F4C3
S11303801DC422EE222EB81708F416C423EE22B898
S113039022B9A81708F40DC422EE222EA81708F4D7
S11303A006C423EE22B822B9F81708F4FDC322EEDE
S11303B0222EF81708F4F6C323EE22B822B9E81760
S11303C008F4EDC322EE222EE81708F4E6C323EE68
S11303D022B822B9781708F4DDC322EE222E78174A
S11303E008F4D6C323EE22B822B9681708F4CDC3A3
S11303F022EE222E681708F4C6C323EE22B822B9CF
S1130400581708F4BDC322EE222E581708F4B6C3B9
S113041023EE22B822B9481708F4ADC322EE222EE7
S1130420481708F4A6C323EE22B822B9381708F4F3
S11304309DC322EE222E381708F496C323EE22B869
S113044022B92B81281708F48AC30F2EF2EE2F2E1F
S1130450F02D281708F481C323EE22B822B92A818B
S1130460281708F475C30F2EF2EE2F2EF02D28173F
S113047008F46CC323EE22B822B92981281708F4A2
S113048060C30F2EF2EE2F2EF02D281708F457C359
S113049023EE22B822B992B920ED22B921ED22B976
S11304A02A89281708F446C30F2EF2ED2F2EF02DBB
S11304B0281708F43DC323ED22B822B92989281747
S11304C008F431C30F2EF2ED2F2EF02D281708F467
S11304D028C323ED22B822B92889281708F41CC39D
S11304E00F2EF2ED2F2EF02D281708F413C323ED51
S11304F022B822B92F85281708F407C30F2EF2ED6E
S11305002F2EF02D281708F4FEC223ED22B822B9AD
S11305102E85281708F4F2C20F2EF2ED2F2EF02D9F
S1130520281708F4E9C223ED22B822B92D8528172B
S113053008F4DDC20F2EF2ED2F2EF02D281708F44B
S1130540D4C223ED22B822B92C85281708F4C8C2D6
S11305500F2EF2ED2F2EF02D281708F4BFC223ED35
S113056022B822B92B85281708F4B3C20F2EF2ED56
S11305702F2EF02D281708F4AAC223ED22B822B991
S11305802A85281708F49EC20F2EF2ED2F2EF02D87
S1130590281708F495C223ED22B822B92985281713
S11305A008F489C20F2EF2ED2F2EF02D281708F42F
S11305B080C223ED22B822B92885281708F474C212
S11305C00F2EF2ED2F2EF02D281708F46BC223ED19
S11305D022B822B92F81281708F45FC20F2EF2ED3A
S11305E02F2EF02D281708F456C223ED22B822B975
S11305F02E81281708F44AC20F2EF2ED2F2EF02D6B
S1130600281708F441C223ED22B822B92D812817F6
S113061008F435C20F2EF2ED2F2EF02D281708F412
S11306202CC223ED22B822B92C81281708F420C249
S11306300F2EF2ED2F2EF02D281708F417C223EDFC
S113064022B822B992B920EB22B921EB22B929A10F
S1130650281708F406C20F2EF2EB2F2EF02D2817C0
S113066008F4FDC123EB22B822B928A1281708F405
S1130670F1C10F2EF2EB2F2EF02D281708F4E8C14C
S113068023EB22B822B92F8D281708F4DCC10F2ED2
S1130690F2EB2F2EF02D281708F4D3C123EB22B848
S11306A022B92E8D281708F4C7C10F2EF2EB2F2E76
S11306B0F02D281708F4BEC123EB22B822B92D8DE2
S11306C0281708F4B2C10F2EF2EB2F2EF02D2817A5
S11306D008F4A9C123EB22B822B92C8D281708F4F9
S11306E09DC10F2EF2EB2F2EF02D281708F494C184
S11306F023EB22B822B92B8D281708F488C10F2EBA
S1130700F2EB2F2EF02D281708F47FC123EB22B82B
S113071022B92A8D281708F473C10F2EF2EB2F2E5D
S1130720F02D281708F46AC123EB22B822B9298DC9
S1130730281708F45EC10F2EF2EB2F2EF02D281788
S113074008F455C123EB22B822B9288D281708F4E0
S113075049C10F2EF2EB2F2EF02D281708F440C1BB
S113076023EB22B822B92F89281708F434C10F2E9D
S1130770F2EB2F2EF02D281708F42BC123EB22B80F
S113078022B92E89281708F41FC10F2EF2EB2F2E41
S1130790F02D281708F416C123EB22B822B92D89AD
S11307A0281708F40AC10F2EF2EB2F2EF02D28176C
S11307B008F401C123EB22B822B92C89281708F4C4
S11307C0F5C00F2EF2EB2F2EF02D281708F4ECC0F5
S11307D023EB22B822B92B89281708F4E0C00F2E86
S11307E0F2EB2F2EF02D281708F4B4C023EB22B817
S11307F022B992B920E722B9835F8B3F09F4B4C0D0
S113080021E722B9381608F0E7CC20E7222E381663
S113081008F0E7CC21E722B822B9481608F0E7CC63
S113082020E7222E481608F0E7CC21E722B822B9A7
S1130830581608F0E7CC20E7222E581608F0E7CC2B
S113084021E722B822B9681608F0E7CC20E7222E67
S1130850681608F0E7CC21E722B822B9781608F028
S1130860E7CC20E7222E781608F0E7CC21E722B85F
S113087022B9881608F0E7CC20E7222E881608F063
S1130880E7CC21E722B822B9981608F0E7CC20E794
S1130890222E981608F0E7CC21E722B822B9A81630
S11308A008F0E7CC20E7222EA81608F0E7CC21E7D1
S11308B022B822B9B81608F0E7CC20E7222EB816E1
S11308C008F0E7CC21E722B822B9C81608F0E7CC33
S11308D020E7222EC81608F0E7CC21E722B822B977
S11308E0D81608F0E7CC20E7222ED81608F0E7CC7B
S11308F021E722B822B9E81608F0E7CC20E7222E37
S1130900E81608F0E7CC21E722B822B9F81608F077
S1130910E7CC20E7222EF81608F0E7CC21E722B82E
S113092022B9081708F0E7CC20E7222E081708F0B0
S1130930E7CC21E722B822B920913201281708F028
S1130940E7CC0F2EF0E72F2EF02D281708F0E7CC78
S113095021E7E6CC21EB22B822B992B920E722B9EB
S1130960835F8B3F09F04CCF80EF82B9A3960FB61B
S1130970F894DEBF0FBECDBFDF91CF911F910F91D1
S1130980FF90EF90DF90CF90BF90AF909F908F90AB
S11309907F906F905F904F903F902F9008950F2E0F
S11309A0F0EB2F2EF02D1FCF21EB13CF0F2EF0EBFA
S11309B02F2EF02D0ACF21EBFECE0F2EF0EB2F2E93
S11309C0F02DF5CE21EBE9CE0F2EF0EB2F2EF02DEE
S11309D0E0CE21EBD4CE0F2EF0EB2F2EF02DCBCE8C
S11309E021EBBFCE0F2EF0EB2F2EF02DB6CE21EB48
S11309F0AACE0F2EF0EB2F2EF02DA1CE21EB95CE0B
S1130A000F2EF0EB2F2EF02D8CCE21EB80CE0F2E5F
S1130A10F0EB2F2EF02D77CE21EB6BCE0F2EF0EBDB
S1130A202F2EF02D62CE21EB56CE0F2EF0EB2F2E73
S1130A30F02D4DCE21EB41CE0F2EF0EB2F2EF02DCD
S1130A4038CE21EB2CCE0F2EF0EB2F2EF02D23CE13
S1130A5021EB17CE0F2EF0EB2F2EF02D0ECE21EB27
S1130A6002CE0F2EF0EB2F2EF02DF9CD21EDE8CD97
S1130A700F2EF0ED2F2EF02DDFCD21EDD3CD0F2E47
S1130A80F0ED2F2EF02DCACD21EDBECD0F2EF0EDC1
S1130A902F2EF02DB5CD21EDA9CD0F2EF0ED2F2E5B
S1130AA0F02DA0CD21ED94CD0F2EF0ED2F2EF02DB5
S1130AB08BCD21ED7FCD0F2EF0ED2F2EF02D76CDA9
S1130AC021ED6ACD0F2EF0ED2F2EF02D61CD21ED0D
S1130AD055CD0F2EF0ED2F2EF02D4CCD21ED40CD28
S1130AE00F2EF0ED2F2EF02D37CD21ED2BCD0F2E27
S1130AF0F0ED2F2EF02D22CD21ED16CD0F2EF0EDA1
S1130B002F2EF02D0DCD21ED01CD0F2EF0ED2F2E3A
S1130B10F02DF8CC21EDECCC0F2EF0ED2F2EF02D96
S1130B20E3CC21EDD7CC0F2EF0ED2F2EF02DCECC33
S1130B3021EDC2CC0F2EF0ED2F2EF02DB9CC21EEED
S1130B40A8CC0F2EF0EE2F2EF02D9FCC21EE93CCBF
S1130B500F2EF0EE2F2EF02D8ACC21EE7ECC0F2E10
S1130B60F0EE2F2EF02D75CC21EE69CC20EE222E46
S1130B7062CC21EE59CC20EE222E52CC21EE49CC6F
S1130B8020EE222E42CC21EE39CC20EE222E32CC85
S1130B9021EE29CC20EE222E22CC21EE19CC20EEFF
S1130BA0222E12CC21EE09CC20EE222E02CC21EEF4
S1130BB0F9CB20EE222EF2CB21EEE9CB20EE222E31
S1130BC0E2CB21EED9CB0F2EF0EE2F2EF02DD0CB91
S1130BD021EEC4CB0F2EF0EE2F2EF02DBBCB21EE49
S1130BE0AFCB20EE222EA8CBEF92FF920F931F9350
S1130BF0CF93DF9360917201209100013091010144
S1130C00662309F498C0CAE0D1E0E2E3F1E0AEE182
S1130C10B1E02EE631E030C08B3A08F46CC0982F76
S1130C20990F980F90831182982F990F990F891B10
S1130C308150828333968C919991482F50E0491BBF
S1130C405109141615060CF054C09FEF890F8D93AB
S1130C50863570F5982F990F990F482F491B942FBB
S1130C6091509083982F990F890F818380E082831C
S1130C7033962E173F0789F18C919991482F50E0B4
S1130C80491B51091416150694F59FEF890F8D938E
S1130C90863510F6982F990F990F482F491B942FDA
S1130CA091509083982F990F890F818380E0C1CF51
S1130CB08B3AC0F510828A3A81F1982F990F990FD7
S1130CC0482F491B415041838B3A40F1891B815085
S1130CD0828333962E173F0779F66F5F6093720114
S1130CE0DF91CF911F910F91FF90EF90089591E0C4
S1130CF0CDCF91E0ABCF10828A3A09F405C1982F89
S1130D00990F990F482F491B415041838B3A08F0A2
S1130D108ECF982F990F890F8CCF1182982F990F0E
S1130D20890FA5CF982F990F980F90831182982F30
S1130D30990F990FCBCFE2E3F1E0CAE0D1E0AEE145
S1130D40B1E08AC0982F990F990FB82FB91B9B2F28
S1130D5091509083982F990F890F818380E082832B
S1130D6089011695079516950795C9019695879556
S1130D70969587959695879580279127822793271F
S1130D80890116950795129502950F7001271F701A
S1130D90012780279127369527958C0111270695E1
S1130DA017950027202B312BDE012D93AD013396AF
S1130DB0D7018C91082F10E09981091B1109101695
S1130DC011060CF076C09FEF890FD7018D938635FD
S1130DD008F45FC08B3A08F083C010828A3A09F4A1
S1130DE07AC0982F990F990F782F791B71507183BE
S1130DF08B3A08F471C0891B81508283890116954E
S1130E00079516950795C9019695879596958795A3
S1130E109695879580279127822793278901169590
S1130E200795129502950F7001271F7001278027DF
S1130E30912781709927369527958C01112706955E
S1130E4017950027202B312BEA012993339641E093
S1130E50EE36F40709F44DC08C91082F10E0988108
S1130E60091B11091016110614F59FEF890F8D93B4
S1130E707D01863508F466CF8B3AE8F0982F990FF8
S1130E80980F90831182982F990F990F891B815085
S1130E9066CF982F990F990F782F791B972F915020
S1130EA09083982F990F890F818380E0A6CF91E0DA
S1130EB0DDCF91E089CF10828A3A21F1982F990FE2
S1130EC0990F782F791B715071838B3AF8F6982F0C
S1130ED0990F890F44CF1182982F990F890F8DCFC5
S1130EE0982F990F980F90831182982F990F990F2B
S1130EF082CF3093010120930001909305018093E8
S1130F000401EBCE1182E3CF118203CF6091720111
S1130F1061115BC08091000190910101AC01569573
S1130F204795569547959C0136952795369527956F
S1130F30369527952427352728273927AC01569538
S1130F404795529542954F7045275F704527242752
S1130F50352721703327309305012093040196959A
S1130F6087953327269537952227822B932B9093A9
S1130F70010180930001982F809309018091080159
S1130F80282F30E0291B3109121613060CF05FC01C
S1130F909FEF980F90930801963518F19B3A08F04B
S1130FA044C0109232019A3A09F44AC0292F220F00
S1130FB0220F892F821B8150809333019B3A08F4BE
S1130FC041C080E0921B91501BC0862F837009F4AE
S1130FD040C08091080190E0980F909308019635E5
S1130FE0E8F6892F880F880F292F281B822F81501C
S1130FF080933201292F220F920F9093330190E0B6
S1131000909334013091320120913301E2E3F1E015
S11310108383248395833396832F41E0EB36F4074F
S1131020B9F76F5F609372010895892F880F890F54
S11310308093320110923301292F220F220FC2CF45
S113104010923301892F880F980F80E0D9CF91E057
S1131050C3CF9091090192CF1F920F920FB60F92B6
S113106011248F93EF93FF93EEE6F0E080811082DA
S113107010920601FF91EF918F910F900FBE0F9088
S11310801F9018951F920F920FB60F9211248F93F1
S113109080910601823041F0479913C08F910F90DF
S11310A00FBE0F901F90189580916E008260809300
S11310B06E0016BC85B5856085BD8DE787BD479BF1
S11310C0EDCF809106018111E9CF81E08093060183
S11310D08F910F900FBE0F901F9018958FEF81B9CD
S11310E085B98FE789B980EF82B916B880E28AB9E9
S11310F080916D00806880936D00809168008460A9
S11311008093680078949091070180910601C7E06C
S1131110D0E011E00CEF813009F4F4C0913009F40F
S11311200AC1913008F414C19230C1F7C0906E0125
S1131130D0906F01E0907001F0907101C114D1045E
S1131140E104F10409F011C1209100013091010181
S113115040910201F901F695E795F695E795C901E5
S1131160969587959695879596958795E827F92777
S1131170E227F327C90196958795929582958F70FA
S113118089279F708927E827F927E170FF2736957B
S11311902795CF019927869597958827282B392B52
S11311A0C901BE0167D18F5F8417A1F2F0930501D5
S11311B0E093040130930101209300018093030123
S11311C08093020112B98091030182FFEEC083EF84
S11311D092EF92B982B98091030181FFEEC083EF4F
S11311E092EF92B982B98091030180FFEEC083EF40
S11311F092EF92B982B98091030182FFEEC083EF2E
S113120092EF92B982B98091030181FFEEC083EF1E
S113121092EF92B982B98091030180FFEEC083EF0F
S113122092EF92B982B98091030182FFEEC083EFFD
S113123092EF92B982B98091030181FFEEC083EFEE
S113124092EF92B982B98091030180FFEEC083EFDF
S113125092EF92B982B98091030182FFEEC083EFCD
S113126092EF92B982B98091030181FFEEC083EFBE
S113127092EF92B982B98091030180FFEEC083EFAF
S113128092EF92B982B98091030182FFEEC083EF9D
S113129092EF92B982B98091030181FF7BC083EF01
S11312A092EF92B982B98091030180FD7BC081EFF6
S11312B090EF92B982B902B912B840916E0150917F
S11312C06F01609170017091710180910601403A43
S11312D096E8590791E06907710538F46A017B01C2
S11312E09FEFC91AD90AE90AF90AC0926E01D0928D
S11312F06F01E0927001F0927101813009F01ECF0C
S113130090910701292F30E0223031050CF4B0C050
S113131090E09093070182E080930601109272019D
S113132010926E0110926F0110927001109271016F
S1131330913009F0F6CE58DC99D6809106018130BF
S1131340F9F252DC93D6809106018130A1F7D8CF0F
S1131350DDDD8CD680910601813091F2D7DD86D611
S1131360809106018130A1F7CBCF90EAC91696E8A7
S1131370D90691E0E906F10408F4B2CF10926E01A7
S113138010926F011092700110927101C12CD12C36
S11313907601D4CE81EF90EF92B982B980910301A6
S11313A080FF85CF83EF92EF84CF81EF90EF92B9E6
S11313B082B98091030181FD12CF81EF90EF92B940
S11313C082B98091030180FD12CF81EF90EF92B931
S11313D082B98091030182FD12CF81EF90EF92B91F
S11313E082B98091030181FD12CF81EF90EF92B910
S11313F082B98091030180FD12CF81EF90EF92B901
S113140082B98091030182FD12CF81EF90EF92B9EE
S113141082B98091030181FD12CF81EF90EF92B9DF
S113142082B98091030180FD12CF81EF90EF92B9D0
S113143082B98091030182FD12CF81EF90EF92B9BE
S113144082B98091030181FD12CF81EF90EF92B9AF
S113145082B98091030180FD12CF81EF90EF92B9A0
S113146082B98091030182FD12CF81EF90EF11CFF9
S11314709F5F4FCFAA1BBB1B51E107C0AA1FBB1F15
S1131480A617B70710F0A61BB70B881F991F5A950C
S1131490A9F780959095BC01CD010895F894FFCFEC
S10714A0E1AC0707A9
S9030000FC
