:1000000019C033C032C031C030C0C1C32EC02DC0F2
:100010002CC02BC02AC029C095C327C026C025C02C
:1000200024C023C022C021C020C01FC01EC01DC0CC
:100030001CC01BC011241FBECFEFD2E0DEBFCDBF5E
:1000400011E0A0E0B1E0E8E2F9E002C005900D9215
:10005000A430B107D9F721E0A4E0B1E001C01D92BE
:10006000A337B207E1F7D5D35DC4CACFCF93DF93EF
:10007000CDB7DEB780910201909103019C013695C6
:1000800027953695279580910201909103012827A5
:100090003927809102019091030196958795969555
:1000A0008795969587952827392780910201909109
:1000B000030196958795929582958F7089279F70F9
:1000C00089278227932781709927909372018093C3
:1000D000710180910201909103019C013695279551
:1000E0008091710190917201992786959795882743
:1000F000822B932B90930301809302018091020144
:1001000090910301DF91CF910895CF93DF931F92D8
:10011000CDB7DEB789838981863548F48981982FE8
:10012000880F880F292F281B822F815009C08981B1
:100130008B3A28F09981892F880F890F01C080E0C0
:100140000F90DF91CF910895CF93DF931F92CDB79A
:10015000DEB789838981863528F49981892F880FB4
:10016000890F0DC089818A3A48F48981982F880FB8
:10017000880F292F281B822F815001C080E00F900B
:10018000DF91CF910895CF93DF931F92CDB7DEB764
:10019000898389818B3A48F08981982F880F880F4D
:1001A000292F281B822F815009C08981863528F08C
:1001B0009981892F880F890F01C080E00F90DF910E
:1001C000CF910895CF93DF9300D000D0CDB7DEB7A5
:1001D00089836A834B832C8342E250E062E270E0C1
:1001E0008981282F30E080E190E002C0880F991FBC
:1001F0002A95E2F7982F80EFA92FA8278A81282F28
:1002000030E08B81E82FF0E0C90182959295907FD4
:100210009827807F9827821B930B8E0F9F1F875FE5
:100220009E4FFC0190818C81981710F082E001C0F4
:1002300080E08A2BFB0180838160FA0180830000CB
:100240000F900F900F900F90DF91CF910895CF9363
:10025000DF9300D01F92CDB7DEB789836A834B83CB
:1002600082E290E02981422F50E020E130E002C09C
:10027000220F331F4A95E2F7322F20EF2327216008
:10028000FC0120832B814EE06A8189819BDF2B81D9
:100290004DE06A81898196DF2B814CE06A818981FA
:1002A00091DF2B814BE06A8189818CDF2B814AE0D1
:1002B0006A81898187DF2B8149E06A81898182DFB8
:1002C0002B8148E06A8189817DDF2B8147E06A814B
:1002D000898178DF2B8146E06A81898173DF2B81F8
:1002E00045E06A8189816EDF2B8144E06A818981E2
:1002F00069DF2B8143E06A81898164DF2B8142E0E1
:100300006A8189815FDF2B8141E06A8189815ADFBF
:100310002B8140E06A81898155DF82E290E02CEFF9
:10032000FC01208382E290E02A81422F50E020E10C
:1003300030E002C0220F331F4A95E2F7322F20EF40
:100340002327FC01208300000F900F900F90DF9176
:10035000CF910895CF93DF931F92CDB7DEB7198267
:1003600089818A3FA0F4498160E083E070DF4981A0
:1003700061E080E06CDF498162E081E068DF498113
:1003800063E082E064DF8981835F8983E9CF82E271
:1003900090E020EFFC01208300000F90DF91CF91CF
:1003A0000895CF93DF931F92CDB7DEB7898382E2A2
:1003B00090E022E230E0509100014981452344233E
:1003C00011F042EF01C040EFF9014083242F21607A
:1003D000FC01208300000F90DF91CF910895CF930F
:1003E000DF93CDB7DEB782E290E021E0FC0120830D
:1003F00084E0D7DF82E0D5DF81E0D3DF84E0D1DFA6
:1004000082E0CFDF81E0CDDF84E0CBDF82E0C9DFB7
:1004100081E0C7DF84E0C5DF82E0C3DF81E0C1DFC8
:1004200084E0BFDF82E0BDDF81E0BBDF82E290E0FD
:100430002CEFFC01208382E290E0FC01108200009E
:10044000DF91CF9108950F931F93CF93DF931F9266
:10045000CDB7DEB719828981843108F07CC08981EB
:10046000882F90E02981222F30E02B5B3E4FF9014D
:1004700060812981222F30E02B5B3E4FF9012081E2
:10048000422F50E02981222F30E0275A3E4FF901B8
:100490002081222F30E0FA01E21BF30B9F0112169C
:1004A000130614F42FEF01C021E0260F8B5B9E4F43
:1004B000FC0120838981082F10E08981882F90E03A
:1004C0008B5B9E4FFC01808120DE282FC801880FA6
:1004D000991F800F911F875F9E4FFC0120838981A8
:1004E000082F10E08981882F90E08B5B9E4FFC01E4
:1004F00080812ADE282FC801880F991F800F911F45
:10050000865F9E4FFC0120838981082F10E089813E
:10051000882F90E08B5B9E4FFC01808134DE282F7A
:10052000C801880F991F800F911F855F9E4FFC01A6
:10053000208380910401882351F48981082F10E0E1
:1005400095DD282FC801875A9E4FFC0120838981A1
:100550008F5F898380CF809104018F5F8093040136
:1005600000000F90DF91CF911F910F910895CF93CD
:10057000DF931F92CDB7DEB780910401882311F479
:1005800075DD02C080916D0180936D018091040141
:10059000882F90E083709927892B99F480916E01C0
:1005A000282F30E080916D01882F90E0A901481B31
:1005B000590BCA011816190614F48FEF03C081E015
:1005C00001C080E090916E01890F80936E0180914F
:1005D0006E019BDD8093090180916E01B5DD8093F2
:1005E0000A0180916E01CFDD80930B0181E0898348
:1005F0008981843170F58981282F30E0409109018B
:10060000C901880F991F820F931F875F9E4FFC01BE
:1006100040838981282F30E040910A01C901880F69
:10062000991F820F931F865F9E4FFC014083898133
:10063000282F30E040910B01C901880F991F820FCC
:10064000931F855F9E4FFC01408389818F5F898363
:10065000CFCF809104018F5F8093040100000F9041
:10066000DF91CF910895CF93DF93CDB7DEB780911F
:10067000050190910601A0910701B0910801892B15
:100680008A2B8B2BA1F4F2DC27E030E0B90136D1C4
:100690008F5F809300019091000180910101981774
:1006A00009F4F1CF809100018093010198DE8091DF
:1006B000050190910601A0910701B0910801803ACF
:1006C0009648A140B10560F4809105019091060122
:1006D000A0910701B09108010196A11DB11D03C0B1
:1006E00080E090E0DC018093050190930601A093E7
:1006F0000701B09308010000DF91CF910895CF93D7
:10070000DF93CDB7DEB78EE690E02EE630E0F9015C
:1007100020812260FC01208386E490E0FC011082AD
:1007200085E490E025E430E0F90120812460FC01BB
:10073000208387E490E02DE7FC0120830000DF9117
:10074000CF9108951F920F9200905F000F92112495
:100750008F939F93EF93FF93CF93DF93CDB7DEB744
:100760008EE690E0FC0180818EE690E0FC01108234
:10077000109270010000DF91CF91FF91EF919F9156
:100780008F910F9000925F000F901F9018951F920D
:100790000F9200905F000F9211242F933F934F937D
:1007A0005F936F937F938F939F93AF93BF93EF93D9
:1007B000FF93CF93DF93CDB7DEB780917001823086
:1007C00009F49DDF88E290E0FC018081882334F405
:1007D00080917001882311F481E001C080E08823BA
:1007E00019F081E0809370010000DF91CF91FF91BB
:1007F000EF91BF91AF919F918F917F916F915F9199
:100800004F913F912F910F9000925F000F901F909A
:100810001895CF93DF93CDB7DEB781E290E02FEF4D
:10082000FC01208385E290E02FEFFC01208389E228
:1008300090E02FE7FC01208382E290E020EFFC01B2
:10084000208386E290E0FC0110828AE290E020E2C0
:10085000FC0120838DE690E02DE630E0F901208157
:100860002068FC01208388E690E028E630E0F9016A
:1008700020812460FC012083789480916F01882F6F
:1008800090E08130910561F08230910581F0892BF3
:10089000A9F480917001813019F069DE5BDDF9CF38
:1008A00080917001813049F0CEDD54DDF9CF809127
:1008B0007001813019F0D7DEFACF0000809170010D
:1008C0008130D9F680916F01882F90E001960397CF
:1008D00024F480916F018F5F01C080E080936F01ED
:1008E00082E0809370011092040110920501109231
:1008F00006011092070110920801BFCFAA1BBB1B73
:1009000051E107C0AA1FBB1FA617B70710F0A61B0F
:10091000B70B881F991F5A95A9F780959095BC0130
:08092000CD010895F894FFCF0A
:040928000707E1AC30
:00000001FF
